{
    "contractName": "FlipCoin",
    "abi": [
        {
            "inputs": [
                {
                    "internalType": "address",
                    "name": "_defaultAdmin",
                    "type": "address"
                },
                {
                    "internalType": "string",
                    "name": "_name",
                    "type": "string"
                },
                {
                    "internalType": "string",
                    "name": "_symbol",
                    "type": "string"
                }
            ],
            "stateMutability": "nonpayable",
            "type": "constructor"
        },
        {
            "anonymous": false,
            "inputs": [
                {
                    "indexed": true,
                    "internalType": "address",
                    "name": "owner",
                    "type": "address"
                },
                {
                    "indexed": true,
                    "internalType": "address",
                    "name": "spender",
                    "type": "address"
                },
                {
                    "indexed": false,
                    "internalType": "uint256",
                    "name": "value",
                    "type": "uint256"
                }
            ],
            "name": "Approval",
            "type": "event"
        },
        {
            "anonymous": false,
            "inputs": [
                {
                    "indexed": true,
                    "internalType": "address",
                    "name": "brand",
                    "type": "address"
                }
            ],
            "name": "BrandAuthorized",
            "type": "event"
        },
        {
            "anonymous": false,
            "inputs": [
                {
                    "indexed": true,
                    "internalType": "address",
                    "name": "brand",
                    "type": "address"
                }
            ],
            "name": "BrandRevoked",
            "type": "event"
        },
        {
            "anonymous": false,
            "inputs": [
                {
                    "indexed": false,
                    "internalType": "string",
                    "name": "prevURI",
                    "type": "string"
                },
                {
                    "indexed": false,
                    "internalType": "string",
                    "name": "newURI",
                    "type": "string"
                }
            ],
            "name": "ContractURIUpdated",
            "type": "event"
        },
        {
            "anonymous": false,
            "inputs": [
                {
                    "indexed": true,
                    "internalType": "address",
                    "name": "prevOwner",
                    "type": "address"
                },
                {
                    "indexed": true,
                    "internalType": "address",
                    "name": "newOwner",
                    "type": "address"
                }
            ],
            "name": "OwnerUpdated",
            "type": "event"
        },
        {
            "anonymous": false,
            "inputs": [
                {
                    "indexed": true,
                    "internalType": "address",
                    "name": "referrer",
                    "type": "address"
                },
                {
                    "indexed": true,
                    "internalType": "address",
                    "name": "brand",
                    "type": "address"
                },
                {
                    "indexed": false,
                    "internalType": "bytes32",
                    "name": "referralCode",
                    "type": "bytes32"
                }
            ],
            "name": "ReferralCodeGenerated",
            "type": "event"
        },
        {
            "anonymous": false,
            "inputs": [
                {
                    "indexed": true,
                    "internalType": "address",
                    "name": "user",
                    "type": "address"
                },
                {
                    "indexed": false,
                    "internalType": "uint256",
                    "name": "amount",
                    "type": "uint256"
                }
            ],
            "name": "TokenAwardedUponPurchase",
            "type": "event"
        },
        {
            "anonymous": false,
            "inputs": [
                {
                    "indexed": true,
                    "internalType": "address",
                    "name": "user",
                    "type": "address"
                },
                {
                    "indexed": false,
                    "internalType": "uint256",
                    "name": "amount",
                    "type": "uint256"
                }
            ],
            "name": "TokensDecayed",
            "type": "event"
        },
        {
            "anonymous": false,
            "inputs": [
                {
                    "indexed": true,
                    "internalType": "address",
                    "name": "mintedTo",
                    "type": "address"
                },
                {
                    "indexed": false,
                    "internalType": "uint256",
                    "name": "quantityMinted",
                    "type": "uint256"
                }
            ],
            "name": "TokensMinted",
            "type": "event"
        },
        {
            "anonymous": false,
            "inputs": [
                {
                    "indexed": true,
                    "internalType": "address",
                    "name": "from",
                    "type": "address"
                },
                {
                    "indexed": true,
                    "internalType": "address",
                    "name": "to",
                    "type": "address"
                },
                {
                    "indexed": false,
                    "internalType": "uint256",
                    "name": "value",
                    "type": "uint256"
                }
            ],
            "name": "Transfer",
            "type": "event"
        },
        {
            "anonymous": false,
            "inputs": [
                {
                    "indexed": true,
                    "internalType": "address",
                    "name": "user",
                    "type": "address"
                }
            ],
            "name": "UserApproved",
            "type": "event"
        },
        {
            "anonymous": false,
            "inputs": [
                {
                    "indexed": true,
                    "internalType": "address",
                    "name": "user",
                    "type": "address"
                }
            ],
            "name": "UserRevoked",
            "type": "event"
        },
        {
            "inputs": [],
            "name": "DOMAIN_SEPARATOR",
            "outputs": [
                {
                    "internalType": "bytes32",
                    "name": "",
                    "type": "bytes32"
                }
            ],
            "stateMutability": "view",
            "type": "function"
        },
        {
            "inputs": [
                {
                    "internalType": "address",
                    "name": "owner",
                    "type": "address"
                },
                {
                    "internalType": "address",
                    "name": "spender",
                    "type": "address"
                }
            ],
            "name": "allowance",
            "outputs": [
                {
                    "internalType": "uint256",
                    "name": "",
                    "type": "uint256"
                }
            ],
            "stateMutability": "view",
            "type": "function"
        },
        {
            "inputs": [
                {
                    "internalType": "address",
                    "name": "user",
                    "type": "address"
                }
            ],
            "name": "applyDecay",
            "outputs": [],
            "stateMutability": "nonpayable",
            "type": "function"
        },
        {
            "inputs": [
                {
                    "internalType": "address",
                    "name": "spender",
                    "type": "address"
                },
                {
                    "internalType": "uint256",
                    "name": "amount",
                    "type": "uint256"
                }
            ],
            "name": "approve",
            "outputs": [
                {
                    "internalType": "bool",
                    "name": "",
                    "type": "bool"
                }
            ],
            "stateMutability": "nonpayable",
            "type": "function"
        },
        {
            "inputs": [
                {
                    "internalType": "address",
                    "name": "user",
                    "type": "address"
                }
            ],
            "name": "approveUser",
            "outputs": [],
            "stateMutability": "nonpayable",
            "type": "function"
        },
        {
            "inputs": [
                {
                    "internalType": "address",
                    "name": "brand",
                    "type": "address"
                }
            ],
            "name": "authorizeBrand",
            "outputs": [],
            "stateMutability": "nonpayable",
            "type": "function"
        },
        {
            "inputs": [
                {
                    "internalType": "bytes32",
                    "name": "referralCode",
                    "type": "bytes32"
                }
            ],
            "name": "awardForReferralPurchase",
            "outputs": [],
            "stateMutability": "nonpayable",
            "type": "function"
        },
        {
            "inputs": [
                {
                    "internalType": "address",
                    "name": "user",
                    "type": "address"
                },
                {
                    "internalType": "uint256",
                    "name": "amount",
                    "type": "uint256"
                }
            ],
            "name": "awardTokensUponPurchase",
            "outputs": [],
            "stateMutability": "nonpayable",
            "type": "function"
        },
        {
            "inputs": [
                {
                    "internalType": "address",
                    "name": "account",
                    "type": "address"
                }
            ],
            "name": "balanceOf",
            "outputs": [
                {
                    "internalType": "uint256",
                    "name": "",
                    "type": "uint256"
                }
            ],
            "stateMutability": "view",
            "type": "function"
        },
        {
            "inputs": [
                {
                    "internalType": "uint256",
                    "name": "_amount",
                    "type": "uint256"
                }
            ],
            "name": "burn",
            "outputs": [],
            "stateMutability": "nonpayable",
            "type": "function"
        },
        {
            "inputs": [
                {
                    "internalType": "address",
                    "name": "_account",
                    "type": "address"
                },
                {
                    "internalType": "uint256",
                    "name": "_amount",
                    "type": "uint256"
                }
            ],
            "name": "burnFrom",
            "outputs": [],
            "stateMutability": "nonpayable",
            "type": "function"
        },
        {
            "inputs": [],
            "name": "contractURI",
            "outputs": [
                {
                    "internalType": "string",
                    "name": "",
                    "type": "string"
                }
            ],
            "stateMutability": "view",
            "type": "function"
        },
        {
            "inputs": [],
            "name": "decimals",
            "outputs": [
                {
                    "internalType": "uint8",
                    "name": "",
                    "type": "uint8"
                }
            ],
            "stateMutability": "view",
            "type": "function"
        },
        {
            "inputs": [
                {
                    "internalType": "address",
                    "name": "spender",
                    "type": "address"
                },
                {
                    "internalType": "uint256",
                    "name": "subtractedValue",
                    "type": "uint256"
                }
            ],
            "name": "decreaseAllowance",
            "outputs": [
                {
                    "internalType": "bool",
                    "name": "",
                    "type": "bool"
                }
            ],
            "stateMutability": "nonpayable",
            "type": "function"
        },
        {
            "inputs": [
                {
                    "internalType": "address",
                    "name": "brand",
                    "type": "address"
                }
            ],
            "name": "generateReferralCode",
            "outputs": [
                {
                    "internalType": "bytes32",
                    "name": "",
                    "type": "bytes32"
                }
            ],
            "stateMutability": "nonpayable",
            "type": "function"
        },
        {
            "inputs": [
                {
                    "internalType": "address",
                    "name": "user",
                    "type": "address"
                }
            ],
            "name": "getRecentReferralCode",
            "outputs": [
                {
                    "internalType": "bytes32",
                    "name": "",
                    "type": "bytes32"
                }
            ],
            "stateMutability": "view",
            "type": "function"
        },
        {
            "inputs": [
                {
                    "internalType": "address",
                    "name": "spender",
                    "type": "address"
                },
                {
                    "internalType": "uint256",
                    "name": "addedValue",
                    "type": "uint256"
                }
            ],
            "name": "increaseAllowance",
            "outputs": [
                {
                    "internalType": "bool",
                    "name": "",
                    "type": "bool"
                }
            ],
            "stateMutability": "nonpayable",
            "type": "function"
        },
        {
            "inputs": [
                {
                    "internalType": "address",
                    "name": "",
                    "type": "address"
                }
            ],
            "name": "isApprovedUser",
            "outputs": [
                {
                    "internalType": "bool",
                    "name": "",
                    "type": "bool"
                }
            ],
            "stateMutability": "view",
            "type": "function"
        },
        {
            "inputs": [
                {
                    "internalType": "address",
                    "name": "",
                    "type": "address"
                }
            ],
            "name": "isAuthorizedBrand",
            "outputs": [
                {
                    "internalType": "bool",
                    "name": "",
                    "type": "bool"
                }
            ],
            "stateMutability": "view",
            "type": "function"
        },
        {
            "inputs": [
                {
                    "internalType": "address",
                    "name": "",
                    "type": "address"
                }
            ],
            "name": "lastActiveTimestamp",
            "outputs": [
                {
                    "internalType": "uint256",
                    "name": "",
                    "type": "uint256"
                }
            ],
            "stateMutability": "view",
            "type": "function"
        },
        {
            "inputs": [
                {
                    "internalType": "address",
                    "name": "_to",
                    "type": "address"
                },
                {
                    "internalType": "uint256",
                    "name": "_amount",
                    "type": "uint256"
                }
            ],
            "name": "mintTo",
            "outputs": [],
            "stateMutability": "nonpayable",
            "type": "function"
        },
        {
            "inputs": [
                {
                    "internalType": "bytes[]",
                    "name": "data",
                    "type": "bytes[]"
                }
            ],
            "name": "multicall",
            "outputs": [
                {
                    "internalType": "bytes[]",
                    "name": "results",
                    "type": "bytes[]"
                }
            ],
            "stateMutability": "nonpayable",
            "type": "function"
        },
        {
            "inputs": [],
            "name": "name",
            "outputs": [
                {
                    "internalType": "string",
                    "name": "",
                    "type": "string"
                }
            ],
            "stateMutability": "view",
            "type": "function"
        },
        {
            "inputs": [
                {
                    "internalType": "address",
                    "name": "owner",
                    "type": "address"
                }
            ],
            "name": "nonces",
            "outputs": [
                {
                    "internalType": "uint256",
                    "name": "",
                    "type": "uint256"
                }
            ],
            "stateMutability": "view",
            "type": "function"
        },
        {
            "inputs": [],
            "name": "owner",
            "outputs": [
                {
                    "internalType": "address",
                    "name": "",
                    "type": "address"
                }
            ],
            "stateMutability": "view",
            "type": "function"
        },
        {
            "inputs": [
                {
                    "internalType": "address",
                    "name": "owner",
                    "type": "address"
                },
                {
                    "internalType": "address",
                    "name": "spender",
                    "type": "address"
                },
                {
                    "internalType": "uint256",
                    "name": "value",
                    "type": "uint256"
                },
                {
                    "internalType": "uint256",
                    "name": "deadline",
                    "type": "uint256"
                },
                {
                    "internalType": "uint8",
                    "name": "v",
                    "type": "uint8"
                },
                {
                    "internalType": "bytes32",
                    "name": "r",
                    "type": "bytes32"
                },
                {
                    "internalType": "bytes32",
                    "name": "s",
                    "type": "bytes32"
                }
            ],
            "name": "permit",
            "outputs": [],
            "stateMutability": "nonpayable",
            "type": "function"
        },
        {
            "inputs": [],
            "name": "platform",
            "outputs": [
                {
                    "internalType": "address",
                    "name": "",
                    "type": "address"
                }
            ],
            "stateMutability": "view",
            "type": "function"
        },
        {
            "inputs": [
                {
                    "internalType": "address",
                    "name": "",
                    "type": "address"
                }
            ],
            "name": "recentReferralCode",
            "outputs": [
                {
                    "internalType": "bytes32",
                    "name": "",
                    "type": "bytes32"
                }
            ],
            "stateMutability": "view",
            "type": "function"
        },
        {
            "inputs": [
                {
                    "internalType": "bytes32",
                    "name": "",
                    "type": "bytes32"
                }
            ],
            "name": "referralLinks",
            "outputs": [
                {
                    "internalType": "address",
                    "name": "",
                    "type": "address"
                }
            ],
            "stateMutability": "view",
            "type": "function"
        },
        {
            "inputs": [
                {
                    "internalType": "address",
                    "name": "brand",
                    "type": "address"
                }
            ],
            "name": "revokeBrand",
            "outputs": [],
            "stateMutability": "nonpayable",
            "type": "function"
        },
        {
            "inputs": [
                {
                    "internalType": "address",
                    "name": "user",
                    "type": "address"
                }
            ],
            "name": "revokeUser",
            "outputs": [],
            "stateMutability": "nonpayable",
            "type": "function"
        },
        {
            "inputs": [
                {
                    "internalType": "string",
                    "name": "_uri",
                    "type": "string"
                }
            ],
            "name": "setContractURI",
            "outputs": [],
            "stateMutability": "nonpayable",
            "type": "function"
        },
        {
            "inputs": [
                {
                    "internalType": "address",
                    "name": "_newOwner",
                    "type": "address"
                }
            ],
            "name": "setOwner",
            "outputs": [],
            "stateMutability": "nonpayable",
            "type": "function"
        },
        {
            "inputs": [
                {
                    "internalType": "uint256",
                    "name": "_newValue",
                    "type": "uint256"
                }
            ],
            "name": "setTokenValue",
            "outputs": [],
            "stateMutability": "nonpayable",
            "type": "function"
        },
        {
            "inputs": [],
            "name": "symbol",
            "outputs": [
                {
                    "internalType": "string",
                    "name": "",
                    "type": "string"
                }
            ],
            "stateMutability": "view",
            "type": "function"
        },
        {
            "inputs": [],
            "name": "tokenValue",
            "outputs": [
                {
                    "internalType": "uint256",
                    "name": "",
                    "type": "uint256"
                }
            ],
            "stateMutability": "view",
            "type": "function"
        },
        {
            "inputs": [],
            "name": "totalSupply",
            "outputs": [
                {
                    "internalType": "uint256",
                    "name": "",
                    "type": "uint256"
                }
            ],
            "stateMutability": "view",
            "type": "function"
        },
        {
            "inputs": [
                {
                    "internalType": "address",
                    "name": "to",
                    "type": "address"
                },
                {
                    "internalType": "uint256",
                    "name": "amount",
                    "type": "uint256"
                }
            ],
            "name": "transfer",
            "outputs": [
                {
                    "internalType": "bool",
                    "name": "",
                    "type": "bool"
                }
            ],
            "stateMutability": "nonpayable",
            "type": "function"
        },
        {
            "inputs": [
                {
                    "internalType": "address",
                    "name": "from",
                    "type": "address"
                },
                {
                    "internalType": "address",
                    "name": "to",
                    "type": "address"
                },
                {
                    "internalType": "uint256",
                    "name": "amount",
                    "type": "uint256"
                }
            ],
            "name": "transferFrom",
            "outputs": [
                {
                    "internalType": "bool",
                    "name": "",
                    "type": "bool"
                }
            ],
            "stateMutability": "nonpayable",
            "type": "function"
        }
    ],
    "bytecode": "6101006040527f6e71edae12b1b97f4d1f60370fef10105fa2faae0126114a169c64845d6126c960e0523480156200003657600080fd5b5060405162002b9f38038062002b9f83398101604081905262000059916200032e565b8282828181818160056200006e838262000447565b5060066200007d828262000447565b50504660a052503060c05262000092620000e6565b60805250620000a39050836200017d565b5050600880546001600160a01b039095166001600160a01b0319909516851790555050506000908152600a60205260409020805460ff1916600117905562000513565b60007f8b73c3c69bb8fe3d512ecc4cf759cc79239f7b179b0ffacaa9a75d522b39400f62000113620001cf565b80516020918201206040805192830193909352918101919091527fc89efdaa54c0f20c7adf612882df0950f5a951637e0307cdcb4c672f298b8bc660608201524660808201523060a082015260c00160405160208183030381529060405280519060200120905090565b600180546001600160a01b038381166001600160a01b0319831681179093556040519116919082907f8292fce18fa69edf4db7b94ea2e58241df0ae57f97e0a6c9b29067028bf92d7690600090a35050565b606060058054620001e090620003b8565b80601f01602080910402602001604051908101604052809291908181526020018280546200020e90620003b8565b80156200025f5780601f1062000233576101008083540402835291602001916200025f565b820191906000526020600020905b8154815290600101906020018083116200024157829003601f168201915b5050505050905090565b634e487b7160e01b600052604160045260246000fd5b600082601f8301126200029157600080fd5b81516001600160401b0380821115620002ae57620002ae62000269565b604051601f8301601f19908116603f01168101908282118183101715620002d957620002d962000269565b81604052838152602092508683858801011115620002f657600080fd5b600091505b838210156200031a5785820183015181830184015290820190620002fb565b600093810190920192909252949350505050565b6000806000606084860312156200034457600080fd5b83516001600160a01b03811681146200035c57600080fd5b60208501519093506001600160401b03808211156200037a57600080fd5b62000388878388016200027f565b935060408601519150808211156200039f57600080fd5b50620003ae868287016200027f565b9150509250925092565b600181811c90821680620003cd57607f821691505b602082108103620003ee57634e487b7160e01b600052602260045260246000fd5b50919050565b601f8211156200044257600081815260208120601f850160051c810160208610156200041d5750805b601f850160051c820191505b818110156200043e5782815560010162000429565b5050505b505050565b81516001600160401b0381111562000463576200046362000269565b6200047b81620004748454620003b8565b84620003f4565b602080601f831160018114620004b357600084156200049a5750858301515b600019600386901b1c1916600185901b1785556200043e565b600085815260208120601f198616915b82811015620004e457888601518255948401946001909101908401620004c3565b5085821015620005035787850151600019600388901b60f8161c191681555b5050505050600190811b01905550565b60805160a05160c05160e0516126526200054d6000396000610f00015260006106e8015260006107120152600061073c01526126526000f3fe608060405234801561001057600080fd5b506004361061023d5760003560e01c80638da5cb5b1161013b578063bdef851e116100b8578063dd62ed3e1161007c578063dd62ed3e1461055f578063e8a3d48514610572578063edfcc4371461057a578063ef097fc41461058d578063fd65529b146105a057600080fd5b8063bdef851e146104ea578063c95b0fc314610513578063c971ea3a14610526578063d505accf14610539578063d624fdb61461054c57600080fd5b8063a457c2d7116100ff578063a457c2d714610458578063a5b1b0501461046b578063a9059cbb14610494578063ac9650d8146104a7578063b884112c146104c757600080fd5b80638da5cb5b146103f9578063938e3d7b1461040a57806395d89b411461041d5780639765a0c214610425578063a2bf69391461044557600080fd5b806339509351116101c95780636c9c7b631161018d5780636c9c7b631461037457806370a082311461038757806379cc6790146103b05780637ecebe00146103c35780638be9778b146103d657600080fd5b806339509351146102f057806342966c6814610303578063449a52f8146103165780634bde38c814610329578063599512321461035457600080fd5b80631ec7e345116102105780631ec7e345146102aa57806323b872dd146102b3578063313ce567146102c65780633644e515146102d557806337b91202146102dd57600080fd5b806306fdde0314610242578063095ea7b31461026057806313af40351461028357806318160ddd14610298575b600080fd5b61024a6105b3565b6040516102579190611ed2565b60405180910390f35b61027361026e366004611efc565b610645565b6040519015158152602001610257565b610296610291366004611f26565b61065f565b005b6004545b604051908152602001610257565b61029c60095481565b6102736102c1366004611f41565b6106b5565b60405160128152602001610257565b61029c6106db565b6102966102eb366004611f26565b61076b565b6102736102fe366004611efc565b6107e1565b610296610311366004611f7d565b610820565b610296610324366004611efc565b61087e565b60085461033c906001600160a01b031681565b6040516001600160a01b039091168152602001610257565b61029c610362366004611f26565b600b6020526000908152604090205481565b61029c610382366004611f26565b610927565b61029c610395366004611f26565b6001600160a01b031660009081526002602052604090205490565b6102966103be366004611efc565b610a40565b61029c6103d1366004611f26565b610b36565b6102736103e4366004611f26565b600a6020526000908152604090205460ff1681565b6001546001600160a01b031661033c565b610296610418366004611fac565b610b54565b61024a610ba2565b61029c610433366004611f26565b600e6020526000908152604090205481565b610296610453366004611f7d565b610bb1565b610273610466366004611efc565b610be0565b61029c610479366004611f26565b6001600160a01b03166000908152600e602052604090205490565b6102736104a2366004611efc565b610c7d565b6104ba6104b536600461205d565b610c8b565b60405161025791906120d2565b6102736104d5366004611f26565b600c6020526000908152604090205460ff1681565b61033c6104f8366004611f7d565b600d602052600090815260409020546001600160a01b031681565b610296610521366004611f7d565b610d80565b610296610534366004611efc565b610e2c565b610296610547366004612134565b610eac565b61029661055a366004611f26565b611032565b61029c61056d3660046121a7565b6110a8565b61024a6110d3565b610296610588366004611f26565b611161565b61029661059b366004611f26565b61127b565b6102966105ae366004611f26565b6112ee565b6060600580546105c2906121da565b80601f01602080910402602001604051908101604052809291908181526020018280546105ee906121da565b801561063b5780601f106106105761010080835404028352916020019161063b565b820191906000526020600020905b81548152906001019060200180831161061e57829003601f168201915b5050505050905090565b600033610653818585611361565b60019150505b92915050565b610667611485565b6106a95760405162461bcd60e51b815260206004820152600e60248201526d139bdd08185d5d1a1bdc9a5e995960921b60448201526064015b60405180910390fd5b6106b2816114b2565b50565b6000336106c3858285611504565b6106ce85858561157e565b60019150505b9392505050565b6000306001600160a01b037f00000000000000000000000000000000000000000000000000000000000000001614801561073457507f000000000000000000000000000000000000000000000000000000000000000046145b1561075e57507f000000000000000000000000000000000000000000000000000000000000000090565b61076661174c565b905090565b6008546001600160a01b031633146107955760405162461bcd60e51b81526004016106a09061220e565b6001600160a01b0381166000818152600a6020526040808220805460ff19166001179055517fc88ad121e7115e5dbdb76535bf3e3001a17af7087c3d4950d51d5a30a728abcf9190a250565b3360008181526003602090815260408083206001600160a01b0387168452909152812054909190610653908290869061081b90879061226d565b611361565b336000908152600260205260409020548111156108745760405162461bcd60e51b81526020600482015260126024820152716e6f7420656e6f7567682062616c616e636560701b60448201526064016106a0565b6106b233826117e1565b610886611485565b6108d25760405162461bcd60e51b815260206004820152601760248201527f4e6f7420617574686f72697a656420746f206d696e742e00000000000000000060448201526064016106a0565b806000036109195760405162461bcd60e51b815260206004820152601460248201527326b4b73a34b733903d32b937903a37b5b2b7399760611b60448201526064016106a0565b610923828261192f565b5050565b336000908152600c602052604081205460ff166109865760405162461bcd60e51b815260206004820152601c60248201527f596f7520617265206e6f7420616e20617070726f76656420757365720000000060448201526064016106a0565b6040516bffffffffffffffffffffffff1933606090811b8216602084015242603484015284901b16605482015260009060680160408051601f1981840301815282825280516020918201206000818152600d835283812080546001600160a01b03191633908117909155808252600e845293902081905580845293506001600160a01b038616927f0ce1b49e1696992262985b8e1e7bdad6877cc5193bd294ed51ed4643ba01a04d910160405180910390a390505b919050565b610a48611485565b610a945760405162461bcd60e51b815260206004820152601760248201527f4e6f7420617574686f72697a656420746f206275726e2e00000000000000000060448201526064016106a0565b80610ab4836001600160a01b031660009081526002602052604090205490565b1015610af75760405162461bcd60e51b81526020600482015260126024820152716e6f7420656e6f7567682062616c616e636560701b60448201526064016106a0565b600081610b0484336110a8565b610b0e9190612280565b9050610b1c83336000611361565b610b27833383611361565b610b3183836117e1565b505050565b6001600160a01b038116600090815260076020526040812054610659565b610b5c611485565b610b995760405162461bcd60e51b815260206004820152600e60248201526d139bdd08185d5d1a1bdc9a5e995960921b60448201526064016106a0565b6106b281611a0e565b6060600680546105c2906121da565b6008546001600160a01b03163314610bdb5760405162461bcd60e51b81526004016106a09061220e565b600955565b3360008181526003602090815260408083206001600160a01b038716845290915281205490919083811015610c655760405162461bcd60e51b815260206004820152602560248201527f45524332303a2064656372656173656420616c6c6f77616e63652062656c6f77604482015264207a65726f60d81b60648201526084016106a0565b610c728286868403611361565b506001949350505050565b60003361065381858561157e565b60608167ffffffffffffffff811115610ca657610ca6611f96565b604051908082528060200260200182016040528015610cd957816020015b6060815260200190600190039081610cc45790505b50905060005b82811015610d7957610d4930858584818110610cfd57610cfd612293565b9050602002810190610d0f91906122a9565b8080601f016020809104026020016040519081016040528093929190818152602001838380828437600092019190915250611ae992505050565b828281518110610d5b57610d5b612293565b60200260200101819052508080610d71906122f7565b915050610cdf565b5092915050565b336000908152600a602052604090205460ff16610daf5760405162461bcd60e51b81526004016106a090612310565b6000818152600d60205260409020546001600160a01b031680610e0c5760405162461bcd60e51b8152602060048201526015602482015274496e76616c696420726566657272616c20636f646560581b60448201526064016106a0565b61092381610e1c6012600a612442565b610e2790600161244e565b61192f565b336000908152600a602052604090205460ff16610e5b5760405162461bcd60e51b81526004016106a090612310565b610e65828261192f565b816001600160a01b03167f6a556445f24452f521bf755379c3f9c6f5fcaf09d46358b843c884af03ee5b5382604051610ea091815260200190565b60405180910390a25050565b83421115610efc5760405162461bcd60e51b815260206004820152601d60248201527f45524332305065726d69743a206578706972656420646561646c696e6500000060448201526064016106a0565b60007f0000000000000000000000000000000000000000000000000000000000000000888888610f2b8c611b0e565b6040805160208101969096526001600160a01b0394851690860152929091166060840152608083015260a082015260c0810186905260e0016040516020818303038152906040528051906020012090506000610fa8610f886106db565b8360405161190160f01b8152600281019290925260228201526042902090565b90506000610fb882878787611b36565b9050896001600160a01b0316816001600160a01b03161461101b5760405162461bcd60e51b815260206004820152601e60248201527f45524332305065726d69743a20696e76616c6964207369676e6174757265000060448201526064016106a0565b6110268a8a8a611361565b50505050505050505050565b6008546001600160a01b0316331461105c5760405162461bcd60e51b81526004016106a09061220e565b6001600160a01b0381166000818152600c6020526040808220805460ff19166001179055517ffbb0a472171a6eb950c8a87421215268a1b2df816da0a48e920e72ade27cfcf79190a250565b6001600160a01b03918216600090815260036020908152604080832093909416825291909152205490565b600080546110e0906121da565b80601f016020809104026020016040519081016040528092919081815260200182805461110c906121da565b80156111595780601f1061112e57610100808354040283529160200191611159565b820191906000526020600020905b81548152906001019060200180831161113c57829003601f168201915b505050505081565b6001600160a01b0381166000908152600b60205260408120546111849042612280565b90506000629e34008211156111b4576001600160a01b0383166000908152600260205260409020545b9050611223565b624f1a008211156111ea5760046111e0846001600160a01b031660009081526002602052604090205490565b6111ad9190612465565b62278d00821115611223576002611216846001600160a01b031660009081526002602052604090205490565b6112209190612465565b90505b8015610b315761123383826117e1565b826001600160a01b03167f8e9a75d2d892a8a52ca77a8b0e59a70aeef82c300bf58773e4a7bcbc1b09cb878260405161126e91815260200190565b60405180910390a2505050565b6008546001600160a01b031633146112a55760405162461bcd60e51b81526004016106a09061220e565b6001600160a01b0381166000818152600c6020526040808220805460ff19169055517fb43ac7bf01d16ebcb8c868a4c03fecb1f6984ea4fa1a52c116ef282b8dbb17c59190a250565b6008546001600160a01b031633146113185760405162461bcd60e51b81526004016106a09061220e565b6001600160a01b0381166000818152600a6020526040808220805460ff19169055517f2c35d17f083636adfc85f94ca24b8d8c967c67201a2e72ce0664262365b6418c9190a250565b6001600160a01b0383166113c35760405162461bcd60e51b8152602060048201526024808201527f45524332303a20617070726f76652066726f6d20746865207a65726f206164646044820152637265737360e01b60648201526084016106a0565b6001600160a01b0382166114245760405162461bcd60e51b815260206004820152602260248201527f45524332303a20617070726f766520746f20746865207a65726f206164647265604482015261737360f01b60648201526084016106a0565b6001600160a01b0383811660008181526003602090815260408083209487168084529482529182902085905590518481527f8c5be1e5ebec7d5bd14f71427d1e84f3dd0314c0f7b2291e5b200ac8c7c3b925910160405180910390a3505050565b60006114996001546001600160a01b031690565b6001600160a01b0316336001600160a01b031614905090565b600180546001600160a01b038381166001600160a01b0319831681179093556040519116919082907f8292fce18fa69edf4db7b94ea2e58241df0ae57f97e0a6c9b29067028bf92d7690600090a35050565b600061151084846110a8565b90506000198114611578578181101561156b5760405162461bcd60e51b815260206004820152601d60248201527f45524332303a20696e73756666696369656e7420616c6c6f77616e636500000060448201526064016106a0565b6115788484848403611361565b50505050565b6001600160a01b0383166115e25760405162461bcd60e51b815260206004820152602560248201527f45524332303a207472616e736665722066726f6d20746865207a65726f206164604482015264647265737360d81b60648201526084016106a0565b6001600160a01b0382166116445760405162461bcd60e51b815260206004820152602360248201527f45524332303a207472616e7366657220746f20746865207a65726f206164647260448201526265737360e81b60648201526084016106a0565b6001600160a01b038316600090815260026020526040902054818110156116bc5760405162461bcd60e51b815260206004820152602660248201527f45524332303a207472616e7366657220616d6f756e7420657863656564732062604482015265616c616e636560d01b60648201526084016106a0565b6001600160a01b038085166000908152600260205260408082208585039055918516815290812080548492906116f390849061226d565b92505081905550826001600160a01b0316846001600160a01b03167fddf252ad1be2c89b69c2b068fc378daa952ba7f163c4a11628f55a4df523b3ef8460405161173f91815260200190565b60405180910390a3611578565b60007f8b73c3c69bb8fe3d512ecc4cf759cc79239f7b179b0ffacaa9a75d522b39400f6117776105b3565b80516020918201206040805192830193909352918101919091527fc89efdaa54c0f20c7adf612882df0950f5a951637e0307cdcb4c672f298b8bc660608201524660808201523060a082015260c00160405160208183030381529060405280519060200120905090565b6001600160a01b0382166118415760405162461bcd60e51b815260206004820152602160248201527f45524332303a206275726e2066726f6d20746865207a65726f206164647265736044820152607360f81b60648201526084016106a0565b6001600160a01b038216600090815260026020526040902054818110156118b55760405162461bcd60e51b815260206004820152602260248201527f45524332303a206275726e20616d6f756e7420657863656564732062616c616e604482015261636560f01b60648201526084016106a0565b6001600160a01b03831660009081526002602052604081208383039055600480548492906118e4908490612280565b90915550506040518281526000906001600160a01b038516907fddf252ad1be2c89b69c2b068fc378daa952ba7f163c4a11628f55a4df523b3ef9060200160405180910390a3505050565b6001600160a01b0382166119855760405162461bcd60e51b815260206004820152601f60248201527f45524332303a206d696e7420746f20746865207a65726f20616464726573730060448201526064016106a0565b8060046000828254611997919061226d565b90915550506001600160a01b038216600090815260026020526040812080548392906119c490849061226d565b90915550506040518181526001600160a01b038316906000907fddf252ad1be2c89b69c2b068fc378daa952ba7f163c4a11628f55a4df523b3ef9060200160405180910390a35050565b6000808054611a1c906121da565b80601f0160208091040260200160405190810160405280929190818152602001828054611a48906121da565b8015611a955780601f10611a6a57610100808354040283529160200191611a95565b820191906000526020600020905b815481529060010190602001808311611a7857829003601f168201915b505050505090508160009081611aab91906124d5565b507fc9c7c3fe08b88b4df9d4d47ef47d2c43d55c025a0ba88ca442580ed9e7348a168183604051611add929190612595565b60405180910390a15050565b60606106d483836040518060600160405280602781526020016125f660279139611b5e565b6001600160a01b03811660009081526007602052604090208054600181018255905b50919050565b6000806000611b4787878787611c3b565b91509150611b5481611cff565b5095945050505050565b60606001600160a01b0384163b611bc65760405162461bcd60e51b815260206004820152602660248201527f416464726573733a2064656c65676174652063616c6c20746f206e6f6e2d636f6044820152651b9d1c9858dd60d21b60648201526084016106a0565b600080856001600160a01b031685604051611be191906125c3565b600060405180830381855af49150503d8060008114611c1c576040519150601f19603f3d011682016040523d82523d6000602084013e611c21565b606091505b5091509150611c31828286611e49565b9695505050505050565b6000807f7fffffffffffffffffffffffffffffff5d576e7357a4501ddfe92f46681b20a0831115611c725750600090506003611cf6565b6040805160008082526020820180845289905260ff881692820192909252606081018690526080810185905260019060a0016020604051602081039080840390855afa158015611cc6573d6000803e3d6000fd5b5050604051601f1901519150506001600160a01b038116611cef57600060019250925050611cf6565b9150600090505b94509492505050565b6000816004811115611d1357611d136125df565b03611d1b5750565b6001816004811115611d2f57611d2f6125df565b03611d7c5760405162461bcd60e51b815260206004820152601860248201527f45434453413a20696e76616c6964207369676e6174757265000000000000000060448201526064016106a0565b6002816004811115611d9057611d906125df565b03611ddd5760405162461bcd60e51b815260206004820152601f60248201527f45434453413a20696e76616c6964207369676e6174757265206c656e6774680060448201526064016106a0565b6003816004811115611df157611df16125df565b036106b25760405162461bcd60e51b815260206004820152602260248201527f45434453413a20696e76616c6964207369676e6174757265202773272076616c604482015261756560f01b60648201526084016106a0565b60608315611e585750816106d4565b825115611e685782518084602001fd5b8160405162461bcd60e51b81526004016106a09190611ed2565b60005b83811015611e9d578181015183820152602001611e85565b50506000910152565b60008151808452611ebe816020860160208601611e82565b601f01601f19169290920160200192915050565b6020815260006106d46020830184611ea6565b80356001600160a01b0381168114610a3b57600080fd5b60008060408385031215611f0f57600080fd5b611f1883611ee5565b946020939093013593505050565b600060208284031215611f3857600080fd5b6106d482611ee5565b600080600060608486031215611f5657600080fd5b611f5f84611ee5565b9250611f6d60208501611ee5565b9150604084013590509250925092565b600060208284031215611f8f57600080fd5b5035919050565b634e487b7160e01b600052604160045260246000fd5b600060208284031215611fbe57600080fd5b813567ffffffffffffffff80821115611fd657600080fd5b818401915084601f830112611fea57600080fd5b813581811115611ffc57611ffc611f96565b604051601f8201601f19908116603f0116810190838211818310171561202457612024611f96565b8160405282815287602084870101111561203d57600080fd5b826020860160208301376000928101602001929092525095945050505050565b6000806020838503121561207057600080fd5b823567ffffffffffffffff8082111561208857600080fd5b818501915085601f83011261209c57600080fd5b8135818111156120ab57600080fd5b8660208260051b85010111156120c057600080fd5b60209290920196919550909350505050565b6000602080830181845280855180835260408601915060408160051b870101925083870160005b8281101561212757603f19888603018452612115858351611ea6565b945092850192908501906001016120f9565b5092979650505050505050565b600080600080600080600060e0888a03121561214f57600080fd5b61215888611ee5565b965061216660208901611ee5565b95506040880135945060608801359350608088013560ff8116811461218a57600080fd5b9699959850939692959460a0840135945060c09093013592915050565b600080604083850312156121ba57600080fd5b6121c383611ee5565b91506121d160208401611ee5565b90509250929050565b600181811c908216806121ee57607f821691505b602082108103611b3057634e487b7160e01b600052602260045260246000fd5b60208082526029908201527f4f6e6c792074686520706c6174666f726d2063616e20706572666f726d20746860408201526834b99030b1ba34b7b760b91b606082015260800190565b634e487b7160e01b600052601160045260246000fd5b8082018082111561065957610659612257565b8181038181111561065957610659612257565b634e487b7160e01b600052603260045260246000fd5b6000808335601e198436030181126122c057600080fd5b83018035915067ffffffffffffffff8211156122db57600080fd5b6020019150368190038213156122f057600080fd5b9250929050565b60006001820161230957612309612257565b5060010190565b6020808252602e908201527f4f6e6c7920617574686f72697a6564206272616e64732063616e20706572666f60408201526d3936903a3434b99030b1ba34b7b760911b606082015260800190565b600181815b8085111561239957816000190482111561237f5761237f612257565b8085161561238c57918102915b93841c9390800290612363565b509250929050565b6000826123b057506001610659565b816123bd57506000610659565b81600181146123d357600281146123dd576123f9565b6001915050610659565b60ff8411156123ee576123ee612257565b50506001821b610659565b5060208310610133831016604e8410600b841016171561241c575081810a610659565b612426838361235e565b806000190482111561243a5761243a612257565b029392505050565b60006106d483836123a1565b808202811582820484141761065957610659612257565b60008261248257634e487b7160e01b600052601260045260246000fd5b500490565b601f821115610b3157600081815260208120601f850160051c810160208610156124ae5750805b601f850160051c820191505b818110156124cd578281556001016124ba565b505050505050565b815167ffffffffffffffff8111156124ef576124ef611f96565b612503816124fd84546121da565b84612487565b602080601f83116001811461253857600084156125205750858301515b600019600386901b1c1916600185901b1785556124cd565b600085815260208120601f198616915b8281101561256757888601518255948401946001909101908401612548565b50858210156125855787850151600019600388901b60f8161c191681555b5050505050600190811b01905550565b6040815260006125a86040830185611ea6565b82810360208401526125ba8185611ea6565b95945050505050565b600082516125d5818460208701611e82565b9190910192915050565b634e487b7160e01b600052602160045260246000fdfe416464726573733a206c6f772d6c6576656c2064656c65676174652063616c6c206661696c6564a2646970667358221220da09d8ba68eaa8269376f912f46ca00b38e49819639bf2a12cd22ff8ba34ecb564736f6c63430008130033",
    "sourcePath": "d:/Projects/Flipkart_Grid/Final-Project-2/smart-contracts/flipcoin/contracts/FlipCoin.sol",
    "compiler": {
        "name": "solc",
        "version": "0.8.19+commit.7dd6d404"
    },
    "functionHashes": {
        "DOMAIN_SEPARATOR()": "3644e515",
        "allowance(address,address)": "dd62ed3e",
        "applyDecay(address)": "edfcc437",
        "approve(address,uint256)": "095ea7b3",
        "approveUser(address)": "d624fdb6",
        "authorizeBrand(address)": "37b91202",
        "awardForReferralPurchase(bytes32)": "c95b0fc3",
        "awardTokensUponPurchase(address,uint256)": "c971ea3a",
        "balanceOf(address)": "70a08231",
        "burn(uint256)": "42966c68",
        "burnFrom(address,uint256)": "79cc6790",
        "contractURI()": "e8a3d485",
        "decimals()": "313ce567",
        "decreaseAllowance(address,uint256)": "a457c2d7",
        "generateReferralCode(address)": "6c9c7b63",
        "getRecentReferralCode(address)": "a5b1b050",
        "increaseAllowance(address,uint256)": "39509351",
        "isApprovedUser(address)": "b884112c",
        "isAuthorizedBrand(address)": "8be9778b",
        "lastActiveTimestamp(address)": "59951232",
        "mintTo(address,uint256)": "449a52f8",
        "multicall(bytes[])": "ac9650d8",
        "name()": "06fdde03",
        "nonces(address)": "7ecebe00",
        "owner()": "8da5cb5b",
        "permit(address,address,uint256,uint256,uint8,bytes32,bytes32)": "d505accf",
        "platform()": "4bde38c8",
        "recentReferralCode(address)": "9765a0c2",
        "referralLinks(bytes32)": "bdef851e",
        "revokeBrand(address)": "fd65529b",
        "revokeUser(address)": "ef097fc4",
        "setContractURI(string)": "938e3d7b",
        "setOwner(address)": "13af4035",
        "setTokenValue(uint256)": "a2bf6939",
        "symbol()": "95d89b41",
        "tokenValue()": "1ec7e345",
        "totalSupply()": "18160ddd",
        "transfer(address,uint256)": "a9059cbb",
        "transferFrom(address,address,uint256)": "23b872dd"
    },
    "gasEstimates": {
        "creation": {
            "codeDepositCost": "1962000",
            "executionCost": "infinite",
            "totalCost": "infinite"
        },
        "external": {
            "DOMAIN_SEPARATOR()": "infinite",
            "allowance(address,address)": "infinite",
            "applyDecay(address)": "infinite",
            "approve(address,uint256)": "24674",
            "approveUser(address)": "28028",
            "authorizeBrand(address)": "28029",
            "awardForReferralPurchase(bytes32)": "infinite",
            "awardTokensUponPurchase(address,uint256)": "infinite",
            "balanceOf(address)": "2604",
            "burn(uint256)": "53113",
            "burnFrom(address,uint256)": "infinite",
            "contractURI()": "infinite",
            "decimals()": "267",
            "decreaseAllowance(address,uint256)": "26945",
            "generateReferralCode(address)": "infinite",
            "getRecentReferralCode(address)": "2604",
            "increaseAllowance(address,uint256)": "infinite",
            "isApprovedUser(address)": "2664",
            "isAuthorizedBrand(address)": "2664",
            "lastActiveTimestamp(address)": "2653",
            "mintTo(address,uint256)": "infinite",
            "multicall(bytes[])": "infinite",
            "name()": "infinite",
            "nonces(address)": "2682",
            "owner()": "2377",
            "permit(address,address,uint256,uint256,uint8,bytes32,bytes32)": "infinite",
            "platform()": "2449",
            "recentReferralCode(address)": "2631",
            "referralLinks(bytes32)": "2522",
            "revokeBrand(address)": "28021",
            "revokeUser(address)": "27999",
            "setContractURI(string)": "infinite",
            "setOwner(address)": "28454",
            "setTokenValue(uint256)": "24598",
            "symbol()": "infinite",
            "tokenValue()": "2341",
            "totalSupply()": "2394",
            "transfer(address,uint256)": "infinite",
            "transferFrom(address,address,uint256)": "infinite"
        }
    }
}